{
	"contracts/varibleScope.sol": {
		"DerivedContract": {
			"abi": [
				{
					"inputs": [],
					"name": "getInternalVar",
					"outputs": [
						{
							"internalType": "uint256",
							"name": "",
							"type": "uint256"
						}
					],
					"stateMutability": "view",
					"type": "function"
				},
				{
					"inputs": [],
					"name": "getPrivateVar",
					"outputs": [
						{
							"internalType": "uint256",
							"name": "",
							"type": "uint256"
						}
					],
					"stateMutability": "view",
					"type": "function"
				}
			],
			"devdoc": {
				"kind": "dev",
				"methods": {},
				"version": 1
			},
			"evm": {
				"assembly": "    /* \"contracts/varibleScope.sol\":289:432  contract DerivedContract is varibleScopeEXAMPLE{... */\n  mstore(0x40, 0x80)\n    /* \"contracts/varibleScope.sol\":152:154  30 */\n  0x1e\n    /* \"contracts/varibleScope.sol\":128:154  uint private privateVar=30 */\n  0x00\n  sstore\n    /* \"contracts/varibleScope.sol\":187:189  20 */\n  0x14\n    /* \"contracts/varibleScope.sol\":160:189  uint internal internalVar= 20 */\n  0x01\n  sstore\n    /* \"contracts/varibleScope.sol\":289:432  contract DerivedContract is varibleScopeEXAMPLE{... */\n  callvalue\n  dup1\n  iszero\n  tag_1\n  jumpi\n  0x00\n  dup1\n  revert\ntag_1:\n  pop\n  dataSize(sub_0)\n  dup1\n  dataOffset(sub_0)\n  0x00\n  codecopy\n  0x00\n  return\nstop\n\nsub_0: assembly {\n        /* \"contracts/varibleScope.sol\":289:432  contract DerivedContract is varibleScopeEXAMPLE{... */\n      mstore(0x40, 0x80)\n      callvalue\n      dup1\n      iszero\n      tag_1\n      jumpi\n      0x00\n      dup1\n      revert\n    tag_1:\n      pop\n      jumpi(tag_2, lt(calldatasize, 0x04))\n      shr(0xe0, calldataload(0x00))\n      dup1\n      0x47375d2b\n      eq\n      tag_3\n      jumpi\n      dup1\n      0x74d47d20\n      eq\n      tag_4\n      jumpi\n    tag_2:\n      0x00\n      dup1\n      revert\n        /* \"contracts/varibleScope.sol\":343:429  function getInternalVar() public  view  returns (uint){... */\n    tag_3:\n      tag_5\n      tag_6\n      jump\t// in\n    tag_5:\n      mload(0x40)\n      tag_7\n      swap2\n      swap1\n      tag_8\n      jump\t// in\n    tag_7:\n      mload(0x40)\n      dup1\n      swap2\n      sub\n      swap1\n      return\n        /* \"contracts/varibleScope.sol\":198:284  function getPrivateVar() public  view returns (uint){... */\n    tag_4:\n      tag_9\n      tag_10\n      jump\t// in\n    tag_9:\n      mload(0x40)\n      tag_11\n      swap2\n      swap1\n      tag_8\n      jump\t// in\n    tag_11:\n      mload(0x40)\n      dup1\n      swap2\n      sub\n      swap1\n      return\n        /* \"contracts/varibleScope.sol\":343:429  function getInternalVar() public  view  returns (uint){... */\n    tag_6:\n        /* \"contracts/varibleScope.sol\":392:396  uint */\n      0x00\n        /* \"contracts/varibleScope.sol\":411:422  internalVar */\n      sload(0x01)\n        /* \"contracts/varibleScope.sol\":404:422  return internalVar */\n      swap1\n      pop\n        /* \"contracts/varibleScope.sol\":343:429  function getInternalVar() public  view  returns (uint){... */\n      swap1\n      jump\t// out\n        /* \"contracts/varibleScope.sol\":198:284  function getPrivateVar() public  view returns (uint){... */\n    tag_10:\n        /* \"contracts/varibleScope.sol\":245:249  uint */\n      0x00\n        /* \"contracts/varibleScope.sol\":267:277  privateVar */\n      dup1\n      sload\n        /* \"contracts/varibleScope.sol\":260:277  return privateVar */\n      swap1\n      pop\n        /* \"contracts/varibleScope.sol\":198:284  function getPrivateVar() public  view returns (uint){... */\n      swap1\n      jump\t// out\n        /* \"#utility.yul\":7:84   */\n    tag_14:\n        /* \"#utility.yul\":44:51   */\n      0x00\n        /* \"#utility.yul\":73:78   */\n      dup2\n        /* \"#utility.yul\":62:78   */\n      swap1\n      pop\n        /* \"#utility.yul\":7:84   */\n      swap2\n      swap1\n      pop\n      jump\t// out\n        /* \"#utility.yul\":90:208   */\n    tag_15:\n        /* \"#utility.yul\":177:201   */\n      tag_19\n        /* \"#utility.yul\":195:200   */\n      dup2\n        /* \"#utility.yul\":177:201   */\n      tag_14\n      jump\t// in\n    tag_19:\n        /* \"#utility.yul\":172:175   */\n      dup3\n        /* \"#utility.yul\":165:202   */\n      mstore\n        /* \"#utility.yul\":90:208   */\n      pop\n      pop\n      jump\t// out\n        /* \"#utility.yul\":214:436   */\n    tag_8:\n        /* \"#utility.yul\":307:311   */\n      0x00\n        /* \"#utility.yul\":345:347   */\n      0x20\n        /* \"#utility.yul\":334:343   */\n      dup3\n        /* \"#utility.yul\":330:348   */\n      add\n        /* \"#utility.yul\":322:348   */\n      swap1\n      pop\n        /* \"#utility.yul\":358:429   */\n      tag_21\n        /* \"#utility.yul\":426:427   */\n      0x00\n        /* \"#utility.yul\":415:424   */\n      dup4\n        /* \"#utility.yul\":411:428   */\n      add\n        /* \"#utility.yul\":402:408   */\n      dup5\n        /* \"#utility.yul\":358:429   */\n      tag_15\n      jump\t// in\n    tag_21:\n        /* \"#utility.yul\":214:436   */\n      swap3\n      swap2\n      pop\n      pop\n      jump\t// out\n\n    auxdata: 0xa26469706673582212206441e3e91121513a0ccf9403c9e985fbd91ca3e71e27b8ad69d451ac84849f9364736f6c634300081a0033\n}\n",
				"bytecode": {
					"linkReferences": {},
					"object": "6080604052601e5f5560146001553480156017575f80fd5b5060dc806100245f395ff3fe6080604052348015600e575f80fd5b50600436106030575f3560e01c806347375d2b14603457806374d47d2014604e575b5f80fd5b603a6068565b60405160459190608f565b60405180910390f35b60546071565b604051605f9190608f565b60405180910390f35b5f600154905090565b5f8054905090565b5f819050919050565b6089816079565b82525050565b5f60208201905060a05f8301846082565b9291505056fea26469706673582212206441e3e91121513a0ccf9403c9e985fbd91ca3e71e27b8ad69d451ac84849f9364736f6c634300081a0033",
					"opcodes": "PUSH1 0x80 PUSH1 0x40 MSTORE PUSH1 0x1E PUSH0 SSTORE PUSH1 0x14 PUSH1 0x1 SSTORE CALLVALUE DUP1 ISZERO PUSH1 0x17 JUMPI PUSH0 DUP1 REVERT JUMPDEST POP PUSH1 0xDC DUP1 PUSH2 0x24 PUSH0 CODECOPY PUSH0 RETURN INVALID PUSH1 0x80 PUSH1 0x40 MSTORE CALLVALUE DUP1 ISZERO PUSH1 0xE JUMPI PUSH0 DUP1 REVERT JUMPDEST POP PUSH1 0x4 CALLDATASIZE LT PUSH1 0x30 JUMPI PUSH0 CALLDATALOAD PUSH1 0xE0 SHR DUP1 PUSH4 0x47375D2B EQ PUSH1 0x34 JUMPI DUP1 PUSH4 0x74D47D20 EQ PUSH1 0x4E JUMPI JUMPDEST PUSH0 DUP1 REVERT JUMPDEST PUSH1 0x3A PUSH1 0x68 JUMP JUMPDEST PUSH1 0x40 MLOAD PUSH1 0x45 SWAP2 SWAP1 PUSH1 0x8F JUMP JUMPDEST PUSH1 0x40 MLOAD DUP1 SWAP2 SUB SWAP1 RETURN JUMPDEST PUSH1 0x54 PUSH1 0x71 JUMP JUMPDEST PUSH1 0x40 MLOAD PUSH1 0x5F SWAP2 SWAP1 PUSH1 0x8F JUMP JUMPDEST PUSH1 0x40 MLOAD DUP1 SWAP2 SUB SWAP1 RETURN JUMPDEST PUSH0 PUSH1 0x1 SLOAD SWAP1 POP SWAP1 JUMP JUMPDEST PUSH0 DUP1 SLOAD SWAP1 POP SWAP1 JUMP JUMPDEST PUSH0 DUP2 SWAP1 POP SWAP2 SWAP1 POP JUMP JUMPDEST PUSH1 0x89 DUP2 PUSH1 0x79 JUMP JUMPDEST DUP3 MSTORE POP POP JUMP JUMPDEST PUSH0 PUSH1 0x20 DUP3 ADD SWAP1 POP PUSH1 0xA0 PUSH0 DUP4 ADD DUP5 PUSH1 0x82 JUMP JUMPDEST SWAP3 SWAP2 POP POP JUMP INVALID LOG2 PUSH5 0x6970667358 0x22 SLT KECCAK256 PUSH5 0x41E3E91121 MLOAD GASPRICE 0xC 0xCF SWAP5 SUB 0xC9 0xE9 DUP6 0xFB 0xD9 SHR LOG3 0xE7 0x1E 0x27 0xB8 0xAD PUSH10 0xD451AC84849F9364736F PUSH13 0x634300081A0033000000000000 "
				},
				"gasEstimates": {
					"creation": {
						"codeDepositCost": "44000",
						"executionCost": "44302",
						"totalCost": "88302"
					},
					"external": {
						"getInternalVar()": "2410",
						"getPrivateVar()": "2432"
					}
				},
				"methodIdentifiers": {
					"getInternalVar()": "47375d2b",
					"getPrivateVar()": "74d47d20"
				}
			},
			"storageLayout": {
				"storage": [
					{
						"astId": 4,
						"contract": "contracts/varibleScope.sol:DerivedContract",
						"label": "privateVar",
						"offset": 0,
						"slot": "0",
						"type": "t_uint256"
					},
					{
						"astId": 7,
						"contract": "contracts/varibleScope.sol:DerivedContract",
						"label": "internalVar",
						"offset": 0,
						"slot": "1",
						"type": "t_uint256"
					}
				],
				"types": {
					"t_uint256": {
						"encoding": "inplace",
						"label": "uint256",
						"numberOfBytes": "32"
					}
				}
			},
			"userdoc": {
				"kind": "user",
				"methods": {},
				"version": 1
			}
		}
	}
}